{
  "_format": "hh-sol-artifact-1",
  "contractName": "CertificateStorage",
  "sourceName": "contracts/Lock.sol",
  "abi": [
    {
      "inputs": [
        {
          "internalType": "string",
          "name": "certificateId",
          "type": "string"
        },
        {
          "internalType": "string",
          "name": "ipfsHash",
          "type": "string"
        }
      ],
      "name": "addCertificate",
      "outputs": [],
      "stateMutability": "nonpayable",
      "type": "function"
    },
    {
      "inputs": [
        {
          "internalType": "string",
          "name": "certificateId",
          "type": "string"
        }
      ],
      "name": "verifyCertificate",
      "outputs": [
        {
          "internalType": "string",
          "name": "",
          "type": "string"
        }
      ],
      "stateMutability": "view",
      "type": "function"
    }
  ],
  "bytecode": "0x6080604052348015600f57600080fd5b5061092d8061001f6000396000f3fe608060405234801561001057600080fd5b50600436106100365760003560e01c80638b23d8751461003b578063e24f2ce71461006b575b600080fd5b610055600480360381019061005091906103ee565b610087565b60405161006291906104b6565b60405180910390f35b610085600480360381019061008091906104d8565b61022e565b005b60606000808360405161009a919061058c565b90815260200160405180910390206040518060400160405290816000820180546100c3906105d2565b80601f01602080910402602001604051908101604052809291908181526020018280546100ef906105d2565b801561013c5780601f106101115761010080835404028352916020019161013c565b820191906000526020600020905b81548152906001019060200180831161011f57829003601f168201915b50505050508152602001600182018054610155906105d2565b80601f0160208091040260200160405190810160405280929190818152602001828054610181906105d2565b80156101ce5780601f106101a3576101008083540402835291602001916101ce565b820191906000526020600020905b8154815290600101906020018083116101b157829003601f168201915b5050505050815250509050600081602001515111610221576040517f08c379a00000000000000000000000000000000000000000000000000000000081526004016102189061064f565b60405180910390fd5b8060000151915050919050565b604051806040016040528082815260200183815250600083604051610253919061058c565b908152602001604051809103902060008201518160000190816102769190610825565b50602082015181600101908161028c9190610825565b509050505050565b6000604051905090565b600080fd5b600080fd5b600080fd5b600080fd5b6000601f19601f8301169050919050565b7f4e487b7100000000000000000000000000000000000000000000000000000000600052604160045260246000fd5b6102fb826102b2565b810181811067ffffffffffffffff8211171561031a576103196102c3565b5b80604052505050565b600061032d610294565b905061033982826102f2565b919050565b600067ffffffffffffffff821115610359576103586102c3565b5b610362826102b2565b9050602081019050919050565b82818337600083830152505050565b600061039161038c8461033e565b610323565b9050828152602081018484840111156103ad576103ac6102ad565b5b6103b884828561036f565b509392505050565b600082601f8301126103d5576103d46102a8565b5b81356103e584826020860161037e565b91505092915050565b6000602082840312156104045761040361029e565b5b600082013567ffffffffffffffff811115610422576104216102a3565b5b61042e848285016103c0565b91505092915050565b600081519050919050565b600082825260208201905092915050565b60005b83811015610471578082015181840152602081019050610456565b60008484015250505050565b600061048882610437565b6104928185610442565b93506104a2818560208601610453565b6104ab816102b2565b840191505092915050565b600060208201905081810360008301526104d0818461047d565b905092915050565b600080604083850312156104ef576104ee61029e565b5b600083013567ffffffffffffffff81111561050d5761050c6102a3565b5b610519858286016103c0565b925050602083013567ffffffffffffffff81111561053a576105396102a3565b5b610546858286016103c0565b9150509250929050565b600081905092915050565b600061056682610437565b6105708185610550565b9350610580818560208601610453565b80840191505092915050565b6000610598828461055b565b915081905092915050565b7f4e487b7100000000000000000000000000000000000000000000000000000000600052602260045260246000fd5b600060028204905060018216806105ea57607f821691505b6020821081036105fd576105fc6105a3565b5b50919050565b7f4365727469666963617465206e6f7420666f756e640000000000000000000000600082015250565b6000610639601583610442565b915061064482610603565b602082019050919050565b600060208201905081810360008301526106688161062c565b9050919050565b60008190508160005260206000209050919050565b60006020601f8301049050919050565b600082821b905092915050565b6000600883026106d17fffffffffffffffffffffffffffffffffffffffffffffffffffffffffffffffff82610694565b6106db8683610694565b95508019841693508086168417925050509392505050565b6000819050919050565b6000819050919050565b600061072261071d610718846106f3565b6106fd565b6106f3565b9050919050565b6000819050919050565b61073c83610707565b61075061074882610729565b8484546106a1565b825550505050565b600090565b610765610758565b610770818484610733565b505050565b5b818110156107945761078960008261075d565b600181019050610776565b5050565b601f8211156107d9576107aa8161066f565b6107b384610684565b810160208510156107c2578190505b6107d66107ce85610684565b830182610775565b50505b505050565b600082821c905092915050565b60006107fc600019846008026107de565b1980831691505092915050565b600061081583836107eb565b9150826002028217905092915050565b61082e82610437565b67ffffffffffffffff811115610847576108466102c3565b5b61085182546105d2565b61085c828285610798565b600060209050601f83116001811461088f576000841561087d578287015190505b6108878582610809565b8655506108ef565b601f19841661089d8661066f565b60005b828110156108c5578489015182556001820191506020850194506020810190506108a0565b868310156108e257848901516108de601f8916826107eb565b8355505b6001600288020188555050505b50505050505056fea2646970667358221220d5ea208eefecfddd190451dbf7626a93a529e3cc5f456e727dd4675d4f48083264736f6c634300081c0033",
  "linkReferences": {},
  "deployedLinkReferences": {}
}